:1000000004C100002FC100002DC100002BC1000061
:1000100029C1000027C1000025C1000023C1000044
:1000200021C100001FC100001DC100001BC1000054
:1000300019C1000017C1000015C1000013C1000064
:1000400011C1000099C400000DC100000BC10000E7
:1000500009C1000007C1000005C100000C947E0F1B
:1000600001C100000C94570A0C949B0BFBC00000CC
:10007000F9C00000F7C00000F5C00000F3C00000A8
:100080004EC40000EFC00000EDC00000EBC0000057
:100090000C94970A0C94DA0BE5C00000E3C0000052
:1000A000E1C00000DFC000000DC40000DBC00000A4
:1000B000D9C00000D7C00000D5C00000D6C30000E2
:1000C000D1C00000CFC00000CDC000000C94D70A02
:1000D0000C94190CC7C000000C94170B0C94580C0E
:1000E000C1C0000000002100240027002A002D00CC
:1000F0003000330001010000040107010A01000083
:100100002200250028002B002E00310034000201BF
:100110000000050108010B0100002000230026005B
:1001200029002C002F00320000010000030106010D
:10013000090105050505070508080808020202026D
:100140000A0A080804040404010101010101010173
:100150000303030303030303040707070C0C0C0C3E
:100160000C0C0C0C02020202060606060606060627
:100170000B0B0B0B0B0B0B0B0102102020080810B4
:100180002040102040800201020108040201010207
:1001900004081020408080402010080402018004E0
:1001A000020180402010080402010804020101023B
:1001B0000408102040800102040810204080000044
:1001C000090A02080B0C0D070603040100000000D9
:1001D000000000000000000000000000000000001F
:1001E0000000000000000000000011100F000000DF
:1001F00000000000000000000000000000000000FF
:10020000000000005101C70D4C0111241FBECFEFAB
:10021000D1E2DEBFCDBF00E00CBF12E0A0E0B2E053
:10022000E2E9F1E200E00BBF02C007900D92A831B5
:10023000B107D9F71BBE15E0A8E1B2E001C01D92DD
:10024000A636B107E1F712E0C8E0D2E004C0229779
:10025000FE010E94B910C430D107C9F70E94FD0EFB
:100260000C94BD10CDCEDC0101C06D9341505040C7
:10027000E0F708958130910531F46F5F7F4F59F4B5
:1002800088E192E067C4892B31F46F5F7F4F19F4E6
:1002900088E192E09EC3089580E090E06FEF7FEFE9
:1002A000E9CF81E090E06FEF7FEFE4CF88E192E06B
:1002B00020C481ED94E040E855E260E070E00C94E9
:1002C000970CFC0180911C02803390F480838F5F37
:1002D00080931C02815090E0FC01EE0FFF1FE80F9D
:1002E000F91FE35EFD4F88EB9BE0928381830895C5
:1002F0008FEF80830895DC018C9190E0FC01EE0F7C
:10030000FF1FE80FF91FE35EFD4F80818F7B808325
:100310008C916CE00E94471090E0AC01440F551F97
:10032000480F591F440F551F440F551F20E030E060
:10033000C901840F951FFC01EE0FFF1FE80FF91F85
:10034000E35EFD4F808186FD05C02F5F3F4F2C305F
:10035000310571F70895FC0120812033B8F58181C2
:10036000992787FD909548E850E0481B590B440FAA
:10037000551F440F551F6417750784F08281992714
:1003800087FD909548E552E0481B590B440F551FD7
:10039000440F551F641775070CF4AB0142505040D1
:1003A000CA01AA2797FDA095BA2F880F991FAA1FE7
:1003B000BB1F4FB7F89430E0F901EE0FFF1FE20FBB
:1003C000F31FE35EFD4F928381834FBF0895FC01CD
:1003D00080818F3F19F420E030E016C090E0FC01EE
:1003E000EE0FFF1FE80FF91FE35EFD4F2181328101
:1003F00083E0220F331F8A95E1F7B4E03695279505
:10040000BA95E1F72E5F3F4FC9010895AF92BF92B1
:10041000CF92DF92EF92FF920F931F938C01D7DF61
:1004200000D00F920196AA2797FDA095BA2FF80148
:100430006181772767FD709528E830E0261B370B30
:10044000220F331F220F331F442737FD4095542FAF
:100450006281772767FD7095E8E5EE2EE2E0FE2EDB
:10046000E61AF70AEE0CFF1CEE0CFF1C0027F7FC47
:100470000095102F64EBA62EB12CC12CD12CEDB71A
:10048000FEB7A182B282C382D482BC01CD01AA246C
:10049000BB2465010E94370F0F900F900F900F90B3
:1004A000CB011F910F91FF90EF90DF90CF90BF9005
:1004B000AF900895AF92BF92CF92DF92EF92FF92EA
:1004C0000F931F93CF93DF93EC019B0182E0603287
:1004D00078070CF048C077FF03C020E030E005C08B
:1004E000653B710514F024EB30E000D00F92B901A8
:1004F000882777FD8095982F2981332727FD309510
:10050000E8E8AE2EB12CA21AB30AAA0CBB1CAA0CA6
:10051000BB1CCC24B7FCC094DC2CEA81FF27E7FD90
:10052000F09528E532E02E1B3F0B220F331F220FE0
:10053000331F442737FD4095542FEDB7FEB7218375
:1005400032834383548320E030E040E050E004EB0A
:10055000E02EF12C012D112D0E94370F9B010F90E1
:100560000F900F900F90CE01B901F5DEDF91CF9182
:100570001F910F91FF90EF90DF90CF90BF90AF90C1
:100580000895CF92DF92EF92FF921F93CF93DF9364
:10059000EC01162F7A0169018881803308F092C03E
:1005A000862F61E06FD6888190E0FC01EE0FFF1F7F
:1005B000E80FF91FE35EFD4F1F738081807C812B64
:1005C000808380E292E08E199F0964E070E00E94CF
:1005D0005310698380E699E08C199D0964E070E00E
:1005E0000E9453106A83A8818A2F6CE00E944710F2
:1005F000682F70E0AB01440F551F460F571F440F83
:10060000551F440F551F20E030E0C901840F951F8E
:10061000FC01EE0FFF1FE80FF91FE35EFD4F808125
:1006200086FD44C02F5F3F4F2C30310571F753C01A
:100630001092800082E080938100109285001092D9
:100640008400B19A80916F00826080936F002EC009
:100650006230710569F41092900082E080939100FD
:10066000109295001092940088BB809371001EC078
:100670006330710569F41092A00082E08093A100BC
:100680001092A5001092A40089BB809372000EC046
:10069000672B61F41092200182E080932101109277
:1006A0002501109224018ABB809373008A2F90E069
:1006B000FC01EE0FFF1FE80FF91FE35EFD4F808185
:1006C000806480838881DF91CF911F91FF90EF90AC
:1006D000DF90CF9008956130710509F0B9CFA8CFB0
:1006E00040E252E020E639E04CCFEF92FF920F93C8
:1006F0001F93CF93DF938B017A01EC01DC01A355AB
:10070000BD4F8C9187FF04C0FB011182108236C05F
:10071000AE01440F551F4C0F5D1F440F551F440F72
:10072000551F2C91332727FD3095240F351F8091BD
:100730001C0290E0281739070CF58C91992787FD4A
:100740009095840F951FFC01EE0FFF1FE80FF91F16
:10075000E35EFD4F808186FF11C08C91992787FD54
:100760009095840F951FFC01EE0FFF1FE80FF91FF6
:10077000E35EFD4F80818F7360E037D6DE01A355C5
:10078000BD4F8C918F5F8C93AE01440F551F4C0F62
:100790005D1F440F551F440F551F2C91332727FD14
:1007A0003095240F351F80911C0290E028173907DF
:1007B0000CF04CC08C918C300CF048C0F8012081BA
:1007C00031818C91992787FD9095840F951FFC01AD
:1007D000EE0FFF1FE80FF91FE35EFD4F818192814D
:1007E000280F391FF701318320838C91992787FDCA
:1007F0009095840F951FFC01EE0FFF1FE80FF91F66
:10080000E35EFD4F808186FF29C08C91992787FD8B
:100810009095840F951FFC01EE0FFF1FE80FF91F45
:10082000E35EFD4F80818F7361E0DFD517C080E408
:100830009CE904C0F801808191810496F7019183BD
:100840008083C355DD4F8FEF888308C0F801808116
:100850009181049680549C4950F3ECCFDF91CF9165
:100860001F910F91FF90EF9008951F920F920FB676
:100870000F920BB60F9211242F933F934F935F93D8
:100880006F937F938F939F93AF93BF93EF93FF9358
:1008900080E090E064E271E048E251E026DFFF9101
:1008A000EF91BF91AF919F918F917F916F915F91E8
:1008B0004F913F912F910F900BBE0F900FBE0F9055
:1008C0001F9018951F920F920FB60F920BB60F92B2
:1008D00011242F933F934F935F936F937F938F9345
:1008E0009F93AF93BF93EF93FF9383E090E064EA0D
:1008F00070E048EA50E0F9DEFF91EF91BF91AF91CF
:100900009F918F917F916F915F914F913F912F9127
:100910000F900BBE0F900FBE0F901F9018951F9257
:100920000F920FB60F920BB60F9211242F933F9395
:100930004F935F936F937F938F939F93AF93BF93E7
:10094000EF93FF9382E090E064E970E048E950E0C3
:10095000CCDEFF91EF91BF91AF919F918F917F91ED
:100960006F915F914F913F912F910F900BBE0F9020
:100970000FBE0F901F9018951F920F920FB60F92F7
:100980000BB60F9211242F933F934F935F936F9366
:100990007F938F939F93AF93BF93EF93FF9381E0E8
:1009A00090E064E870E048E850E09FDEFF91EF914E
:1009B000BF91AF919F918F917F916F915F914F9177
:1009C0003F912F910F900BBE0F900FBE0F901F9075
:1009D00018950895EF92FF920F931F937C01FB01EE
:1009E00081E08083CB0100E010E0B80110D1482FF6
:1009F000F70182819381B80150E0B8D1C80198D243
:100A00001F910F91FF90EF9008958F929F92AF9258
:100A1000BF92CF92DF92EF92FF920F931F93CF93EB
:100A2000DF935C017B019924FB018181882311F410
:100A300099249394CC24DD2488248394892445C06C
:100A4000CC2DD0E0F701EC0FFD1F15810285F701D9
:100A50006281613089F0613018F0623081F51AC02E
:100A6000812F682D0FD4992019F0812FF0D40BC05D
:100A7000812F602FBAD423C06925812F03D49920F8
:100A800021F0812FEDD2082F1AC0812F602F70E046
:100A90001BD315C0F50180819181612F70E020DEAC
:100AA000F50180819181992019F0B0DC082F03C0F5
:100AB000602F70E0FFDCF501808191811CDCCE0DA0
:100AC000DF1D0A870894C11CD11CF701838190E0C7
:100AD000C816D9060CF4B4CFDF91CF911F910F91B6
:100AE000FF90EF90DF90CF90BF90AF909F908F904E
:100AF0000895CF92DF92EF92FF920F931F93CF93BF
:100B0000DF936C01FC0182819381EDD0F60182813B
:100B10009381CAD07C01F60182819381C1D08C017E
:100B20008FE090E00E940A0FEC01B701A80134D0D9
:100B30008881882331F4C601BE0167DFC601BE018A
:100B400049DFDF91CF911F910F91FF90EF90DF90E0
:100B5000CF900895EF92FF920F931F938C0183E043
:100B600090E00E940A0FF82EE92EABDBF801F0822C
:100B7000E18288E090E00E940A0FF82EE92E60E8FA
:100B800070E040E050E01ED1F801F282E3821F9154
:100B90000F91FF90EF900895CF93DF93DC01FB015D
:100BA0008081282F237014962C9314978695869510
:100BB000282F237013962C93139786958695282FAC
:100BC000237012962C93129786958695282F217064
:100BD00011962C93119790E09595879581708C9341
:100BE000EB01FD0120E030E007C0898184838A8128
:100BF00081872F5F3F4F2296319613968C911397E2
:100C000090E0281739078CF3DF91CF910895FF9278
:100C10000F931F93CF93DF93EC018B014B8150E037
:100C20004F5F5F4F440F551FF42EC80160E070E026
:100C300050E019DB998191709295990F990F907CF2
:100C40008A8183708295807F980F8C818370980F42
:100C50008B818370880F880F980F888187958827EC
:100C60008795890FF8018083DE0120E030E00BC01A
:100C700014968C91149781832F5F3F4F19968C9116
:100C800019978283329611968B8190E02817390745
:100C90007CF38F2DDF91CF911F910F91FF900895DD
:100CA000FC01868197810895FC0120813181848136
:100CB0009581280F391FC90108950F931F9381ED66
:100CC00094E0BBD60297DCF381ED94E0E7D68C018B
:100CD00081ED94E0E3D6382F20E0020F131FC80106
:100CE0001F910F910895EF92FF920F931F93CF934F
:100CF000DF93EC01EA80FB800894E108F108DDDF76
:100D00009F838E834A815B818881998160E070E056
:100D1000AADA81ED94E091D62E813F8121503040B6
:100D200028173907B0F700E010E00DC081ED94E01E
:100D3000B5D60E151F052CF4E881F981E00FF11FDF
:100D400080830F5F1F4F2E813F810217130770F3BF
:100D50008A819B818217930710F49F838E83DF9192
:100D6000CF911F910F91FF90EF900895CF92DF9256
:100D7000EF92FF920F931F93DF93CF930F920F92F7
:100D8000CDB7DEB77B01D42EC52E49835A8301ED42
:100D900014E0C801BE016F5F7F4F42E050E00E9447
:100DA0000D0FC801B7014D2D5C2D0E940D0F0F9046
:100DB0000F90CF91DF911F910F91FF90EF90DF90F7
:100DC000CF900895CF92DF92EF92FF920F931F93EF
:100DD0008C017B016A01CB010ED0F80180839183E5
:100DE000D582C482F382E2821F910F91FF90EF902F
:100DF000DF90CF9008950F931F93CF93DF93BC01A3
:100E00008230910510F462E070E0E0916405F091A9
:100E1000650540E050E0A0E0B0E024C08081918111
:100E200086179707D0F08617970771F48281938110
:100E3000109729F013969C938E9312972CC0909341
:100E400065058093640527C04115510519F0841785
:100E5000950718F48D01AC01EF01DF0182819381C8
:100E60009C01F9013097D1F641155105F9F0CA01FD
:100E7000861B970B8430910580F48A819B81011534
:100E8000110521F0F8019383828304C090936505D6
:100E900080936405FE01329645C0FE01E80FF91FFC
:100EA000619371930297998388833CC08091620516
:100EB00090916305892B41F4809102029091030285
:100EC000909363058093620540910402509105025E
:100ED0004115510541F44DB75EB7809100029091E4
:100EE0000102481B590B20916205309163052417BC
:100EF0003507B0F4CA01821B930B8617970780F061
:100F0000AB014E5F5F4F8417950750F0420F531FA0
:100F10005093630540936205F9016193719302C098
:100F2000E0E0F0E0CF01DF91CF911F910F910895A4
:100F3000CF93DF939C01009709F48FC0EC012297B7
:100F40001B821A82609164057091650561157105B7
:100F500081F488819981820F931F209162053091DD
:100F600063052817390739F5D0936305C0936205E7
:100F700074C0DB0140E050E0AC17BD0708F1BB8353
:100F8000AA83FE0121913191E20FF31FAE17BF0733
:100F900079F48D919C911197280F391F2E5F3F4F47
:100FA0003983288312968D919C9113979B838A8312
:100FB0004115510571F4D0936505C09364054DC08A
:100FC00012968D919C911397AD01009711F0DC0161
:100FD000D3CFDA011396DC93CE931297FA012191C5
:100FE0003191E20FF31FCE17DF0769F488819981F1
:100FF000280F391F2E5F3F4FFA01318320838A81EA
:101000009B8193838283E0E0F0E0DB0112968D9177
:101010009C911397009719F0BC01FD01F6CFAB012D
:101020004E5F5F4FDB018D919C91840F951F209146
:101030006205309163052817390779F4309729F450
:10104000109265051092640502C01382128242500C
:1010500050405093630540936205DF91CF9108950E
:10106000382F863308F0365320917B00832F8695E6
:101070008695869590E08170907043E0880F991F67
:101080004A95E1F7277F282B20937B0037708091CA
:1010900006028295880F880F807C832B80937C00CA
:1010A00080917A00806480937A0080917A0086FD36
:1010B000FCCF2091780040917900942F80E030E0BF
:1010C000282B392BC90108951F93CF93DF93182F35
:1010D000EB0161E0D7D0209709F4CAC0CF3FD1051A
:1010E00009F4C9C0E12FF0E0E254FE4F8491893049
:1010F00009F466C08A30B0F48430F1F1853040F4F0
:10110000823059F1833070F5813009F0AEC020C0D3
:10111000873009F443C0883008F048C0863009F0B1
:10112000A4C034C08D3009F478C08E3038F48B30D0
:1011300009F45AC08C3008F066C04CC0803109F404
:1011400080C0813109F487C08F3009F08EC06FC034
:1011500084B5806884BDC7BD91C084B5806284BDFC
:10116000C8BD8CC080918000806880938000D0933F
:101170008900C093880082C0809180008062809343
:101180008000D0938B00C0938A0078C08091B0001B
:1011900080688093B000C093B30070C08091B000AD
:1011A00080628093B000C093B40068C080919000CA
:1011B000806880939000D0939900C09398005EC09F
:1011C00080919000806280939000D0939B00C093A8
:1011D0009A0054C080919000886080939000D093D2
:1011E0009D00C0939C004AC08091A00080688093BD
:1011F000A0008091A0008F7B8093A000D093A900D5
:10120000C093A8003BC08091A00080628093A000A2
:10121000D093AB00C093AA0031C08091A000886039
:101220008093A000D093AD00C093AC0027C0809104
:101230002001806880932001D0932901C093280168
:101240001DC080912001806280932001D0932B01EA
:10125000C0932A0113C080912001886080932001EF
:10126000D0932D01C0932C0109C0C038D1051CF4C6
:10127000812F60E002C0812F61E0B7D0DF91CF9174
:101280001F910895CF93DF93482F50E0CA018858EB
:101290009E4FFC0134914E5C5E4FFA01849188238D
:1012A00069F190E0880F991FFC01EC51FF4FA59167
:1012B000B491FC01E250FF4FC591D491662351F4E3
:1012C0002FB7F8948C91932F909589238C938881D4
:1012D00089230BC0623061F42FB7F8948C91932F5F
:1012E000909589238C938881832B88832FBF06C098
:1012F0009FB7F8948C91832B8C939FBFDF91CF91F4
:101300000895893009F449C08A30A0F4843051F13D
:10131000853040F4823079F1833000F5813009F076
:1013200063C026C0873079F1883098F5863009F09F
:101330005BC025C08D3009F442C08E3028F48B305C
:10134000B1F18C30C0F52DC0803109F442C081313B
:1013500009F445C08F3009F047C037C08091800044
:101360008F7703C0809180008F7D809380000895E7
:1013700084B58F7702C084B58F7D84BD0895809138
:10138000B0008F7703C08091B0008F7D8093B00054
:101390000895809190008F7707C0809190008F7D95
:1013A00003C080919000877F809390000895809182
:1013B000A0008F7707C08091A0008F7D03C080912F
:1013C000A000877F8093A0000895809120018F77EF
:1013D00003C0809120018F7D80932001089580912A
:1013E0002001877F809320010895FF920F931F9320
:1013F000F62E482F50E0CA0182549E4FFC012491E2
:10140000CA0188589E4FFC0114914E5C5E4FFA0150
:1014100004910023C1F0222311F0822F72DFE02F0C
:10142000F0E0EE0FFF1FE250FF4FA591B4919FB780
:10143000F894FF2021F48C911095812302C08C91A7
:10144000812B8C939FBF1F910F91FF9008950F9355
:101450001F93482F50E0CA0182549E4FFC012491F3
:10146000CA0188589E4FFC0104914E5C5E4FFA0100
:101470001491112319F420E030E014C0222311F05C
:10148000822F3FDF812F90E0880F991F885E9E4F4B
:10149000FC01A591B4918C9120E030E0802311F003
:1014A00021E030E0C9011F910F91089508951F9226
:1014B0000F920FB60F920BB60F9211242F933F93FA
:1014C0004F938F939F93EF93FF938091C00082FD82
:1014D0001DC04091C6002091F1023091F2022F5FB1
:1014E0003F4F2F7330708091F3029091F4022817D0
:1014F000390771F0E091F102F091F202EF54FD4FE3
:1015000040833093F2022093F10202C08091C60022
:10151000FF91EF919F918F914F913F912F910F905C
:101520000BBE0F900FBE0F901F90189508951F923D
:101530000F920FB60F920BB60F9211242F933F9379
:101540004F938F939F93EF93FF938091C80082FDF9
:101550001DC04091CE002091790330917A032F5F16
:101560003F4F2F73307080917B0390917C0328173D
:10157000390771F0E0917903F0917A03E75CFC4F51
:10158000408330937A032093790302C08091CE0088
:10159000FF91EF919F918F914F913F912F910F90DC
:1015A0000BBE0F900FBE0F901F90189508951F92BD
:1015B0000F920FB60F920BB60F9211242F933F93F9
:1015C0004F938F939F93EF93FF938091D00082FD71
:1015D0001DC04091D60020910104309102042F5F7C
:1015E0003F4F2F73307080910304909104042817AB
:1015F000390771F0E0910104F0910204EF53FC4FC0
:101600004083309302042093010402C08091D600ED
:10161000FF91EF919F918F914F913F912F910F905B
:101620000BBE0F900FBE0F901F90189508951F923C
:101630000F920FB60F920BB60F9211242F933F9378
:101640004F938F939F93EF93FF938091300182FD8F
:101650001DC0409136012091890430918A042F5F8A
:101660003F4F2F73307080918B0490918C0428171A
:10167000390771F0E0918904F0918A04E75BFB4F30
:10168000408330938A042093890402C080913601FC
:10169000FF91EF919F918F914F913F912F910F90DB
:1016A0000BBE0F900FBE0F901F901895E091DD04B8
:1016B000F091DE04E05CFF4F8191919120813181B6
:1016C000821B930B8F739070892B09F0EFDEE091F2
:1016D000FF04F0910005E05CFF4F81919191208122
:1016E0003181821B930B8F739070892B09F01EDF61
:1016F000E0912105F0912205E05CFF4F81919191ED
:1017000020813181821B930B8F739070892B09F09C
:101710004DDFE0914305F0914405E05CFF4F81917E
:10172000919120813181821B930B8F739070892B53
:1017300009F07CCF08951F920F920FB60F920BB64F
:101740000F9211242F933F938F939F93EF93FF93C7
:1017500020913503309136038091370390913803FF
:101760002817390731F48091C1008F7D8093C10023
:1017700014C0E0913703F0913803EB50FD4F208106
:10178000809137039091380301968F7390709093F6
:101790003803809337032093C600FF91EF919F9108
:1017A0008F913F912F910F900BBE0F900FBE0F9016
:1017B0001F9018951F920F920FB60F920BB60F92B3
:1017C00011242F933F938F939F93EF93FF93209137
:1017D000BD033091BE038091BF039091C0032817D1
:1017E000390731F48091C9008F7D8093C90014C0FE
:1017F000E091BF03F091C003E358FC4F208180913A
:10180000BF039091C00301968F7390709093C003B3
:101810008093BF032093CE00FF91EF919F918F9112
:101820003F912F910F900BBE0F900FBE0F901F9006
:1018300018951F920F920FB60F920BB60F921124AC
:101840002F933F938F939F93EF93FF9320914504A2
:101850003091460480914704909148042817390735
:1018600031F48091D1008F7D8093D10014C0E0913C
:101870004704F0914804EB5FFB4F208180914704BF
:101880009091480401968F739070909348048093D0
:1018900047042093D600FF91EF919F918F913F9144
:1018A0002F910F900BBE0F900FBE0F901F901895A9
:1018B0001F920F920FB60F920BB60F9211242F9317
:1018C0003F938F939F93EF93FF932091CD0430919B
:1018D000CE048091CF049091D0042817390731F4B9
:1018E000809131018F7D8093310114C0E091CF044C
:1018F000F091D004E357FB4F20818091CF04909169
:10190000D00401968F7390709093D0048093CF048D
:1019100020933601FF91EF919F918F913F912F91ED
:101920000F900BBE0F900FBE0F901F901895AF92A7
:10193000BF92DF92EF92FF920F931F93CF93DF93AB
:10194000EC017A018B01DD24403081EE580780E004
:10195000680780E0780711F0DD24D39491E0A92E88
:10196000B12CEC89FD89DD2069F0C50108A002C019
:10197000880F991F0A94E2F7808360E079E08DE395
:1019800090E005C0108260E874E88EE190E0A80164
:1019900097019CD321503040404050405695479588
:1019A0003795279580E12030380720F0DD2011F0B1
:1019B000DD24D7CFE889F9893083EA89FB89208340
:1019C00019A2EE89FF89408121E030E0C9010C8C29
:1019D00002C0880F991F0A94E2F7482B4083EE89D2
:1019E000FF894081C9010D8C02C0880F991F0A949C
:1019F000E2F7482B4083EE89FF894081C9010E8CB4
:101A000002C0880F991F0A94E2F7482B4083EE89A1
:101A1000FF8980810F8C02C0220F331F0A94E2F7E6
:101A2000209528232083DF91CF911F910F91FF9064
:101A3000EF90DF90BF90AF900895DC011C96ED9180
:101A4000FC911D97E05CFF4F219131918081918144
:101A5000281B390B2F733070C9010895DC011C96C7
:101A6000ED91FC911D97E05CFF4F20813181E054A6
:101A7000F040DF01AE5BBF4F8D919C91119728170D
:101A8000390719F42FEF3FEF07C08D919C91E80FB4
:101A9000F91F8081282F30E0C9010895DC011C96D0
:101AA000ED91FC911D97E05CFF4F20813181E05466
:101AB000F040DF01AE5BBF4F8D919C9111972817CD
:101AC000390719F42FEF3FEF10C08D919C911197BA
:101AD000E80FF91F20818D919C91119701968F73CA
:101AE000907011969C938E9330E0C9010895DC01AB
:101AF00091968C919197882339F05496ED91FC91B1
:101B00005597808186FFF9CF91961C920895CF93C7
:101B1000DF93EC01EE85FF85E05CFF4F2081318192
:101B2000E054F0402F5F3F4F2F733070DF01AE5B0A
:101B3000BF4F8D919C91119728173907D1F3E05C25
:101B4000FF4F80819181E054F040E80FF91F6083DE
:101B5000EE85FF85E05CFF4F31832083EE89FF89AE
:101B6000208181E090E00F8C02C0880F991F0A94B9
:101B7000E2F7282B208381E089A3EC89FD8980810D
:101B80008064808381E090E0DF91CF9108951F937E
:101B90001092D4041092D30428EE33E040E050E0D9
:101BA0002093D5043093D6044093D7045093D8049F
:101BB0006BE072E07093D2046093D10481EB92E009
:101BC0009093DE048093DD0485EF92E09093E0042F
:101BD0008093DF0485EC90E09093E2048093E1042D
:101BE00084EC90E09093E4048093E30480EC90E034
:101BF0009093E6048093E50481EC90E09093E804F0
:101C00008093E70482EC90E09093EA048093E904E7
:101C100086EC90E09093EC048093EB0414E0109336
:101C2000ED04B3E0B093EE04A7E0A093EF04F5E079
:101C3000F093F004E1E0E093F1041092F6041092C6
:101C4000F5042093F7043093F8044093F90450937B
:101C5000FA047093F4046093F30489E393E090939F
:101C600000058093FF048DE793E090930205809335
:101C700001058DEC90E090930405809303058CECB6
:101C800090E0909306058093050588EC90E0909392
:101C900008058093070589EC90E090930A058093EE
:101CA00009058AEC90E090930C0580930B058EEC6F
:101CB00090E090930E0580930D0510930F05B0935F
:101CC0001005A0931105F0931205E09313051092EF
:101CD0001805109217052093190530931A054093A3
:101CE0001B0550931C05709316056093150581EC38
:101CF00093E0909322058093210585E094E09093F2
:101D000024058093230585ED90E09093260580932C
:101D1000250584ED90E0909328058093270580EDBC
:101D200090E090932A058093290581ED90E09093AF
:101D30002C0580932B0582ED90E090932E058093E7
:101D40002D0586ED90E09093300580932F0510933C
:101D50003105B0933205A0933305F0933405E09339
:101D6000350510923A051092390520933B053093C2
:101D70003C0540933D0550933E05709338056093B4
:101D8000370589E494E090934405809343058DE8FA
:101D900094E0909346058093450585E391E0909308
:101DA00048058093470584E391E090934A0580932A
:101DB000490580E391E090934C0580934B0581E3C6
:101DC00091E090934E0580934D0582E391E09093CE
:101DD000500580934F0586E391E0909352058093E0
:101DE000510510935305B0935405A0935505F093F6
:101DF0005605E09357051F910895CF93DF93C6D002
:101E00000E945901C6E5DBE00E9456012097E1F3EC
:101E10004DDCFACF0C94FB060895CF92DF92EF923F
:101E2000FF920F931F93CF93DF937C016B018A0185
:101E3000C0E0D0E00FC0D6016D916D01D701ED91EA
:101E4000FC910190F081E02DC7011995C80FD91FB1
:101E5000015010400115110571F7CE01DF91CF91AE
:101E60001F910F91FF90EF90DF90CF9008952F92E8
:101E70003F924F925F926F927F928F929F92AF921A
:101E8000BF92CF92DF92EF92FF920F931F93DF9357
:101E9000CF93CDB7DEB73B014C0119012A016E8902
:101EA0007F89888D998D6A197B098C099D09621A31
:101EB000730A840A950AA4019301CAD0E218F308B0
:101EC00004091509A801970123D12A0D3B1D4C1DBA
:101ED0005D1DB901CA01CF91DF911F910F91FF9054
:101EE000EF90DF90CF90BF90AF909F908F907F90BA
:101EF0006F905F904F903F902F9008951F920F9298
:101F00000FB60F9211242F933F938F939F93AF930C
:101F1000BF9380915D0590915E05A0915F05B091A2
:101F20006005309161050196A11DB11D232F2D5F24
:101F30002D3720F02D570196A11DB11D209361056D
:101F400080935D0590935E05A0935F05B093600557
:101F50008091590590915A05A0915B05B0915C055F
:101F60000196A11DB11D8093590590935A05A09328
:101F70005B05B0935C05BF91AF919F918F913F91AD
:101F80002F910F900FBE0F901F901895789484B5E5
:101F9000826084BD84B5816084BD85B5826085BD65
:101FA00085B5816085BDEEE6F0E08081816080834B
:101FB000E1E8F0E01082808182608083808181602E
:101FC0008083E0E8F0E0808181608083E1EBF0E0F5
:101FD000808184608083E0EBF0E080818160808399
:101FE000E1E9F0E08081826080838081816080838C
:101FF000E0E9F0E0808181608083E1EAF0E08081C7
:1020000082608083808181608083E0EAF0E080816B
:1020100081608083E1E2F1E0808182608083808161
:1020200081608083E0E2F1E0808181608083EAE783
:10203000F0E0808184608083808182608083808101
:10204000816080838081806880831092C1000895C0
:10205000629FD001739FF001829FE00DF11D649F8C
:10206000E00DF11D929FF00D839FF00D749FF00D18
:10207000659FF00D9927729FB00DE11DF91F639FB9
:10208000B00DE11DF91FBD01CF0111240895991B69
:1020900079E004C0991F961708F0961B881F7A955F
:1020A000C9F78095089597FB092E07260AD077FD7A
:1020B00004D049D006D000201AF4709561957F4F66
:1020C0000895F6F7909581959F4F0895A1E21A2EF5
:1020D000AA1BBB1BFD010DC0AA1FBB1FEE1FFF1FCC
:1020E000A217B307E407F50720F0A21BB30BE40B1C
:1020F000F50B661F771F881F991F1A9469F7609563
:102100007095809590959B01AC01BD01CF0108951C
:1021100097FB092E05260ED057FD04D0D7DF0AD035
:10212000001C38F450954095309521953F4F4F4F06
:102130005F4F0895F6F790958095709561957F4F64
:102140008F4F9F4F0895AA1BBB1B51E107C0AA1FC9
:10215000BB1FA617B70710F0A61BB70B881F991F48
:102160005A95A9F780959095BC01CD010895EE0F81
:10217000FF1F0590F491E02D199412E0C8E0D2E021
:1021800003C0FE01F6DF2296CA30D107D1F7F894DA
:02219000FFCF7F
:102192008000660500000100000000870D0D0F1D84
:0821A2000D4E0D2E0D770D000E
:00000001FF
